:020000040000FA
:020000001728BF
:08000800F100030EF2000A08EA
:10001000F3008A010D308A00700800258700060869
:1000200073088A00720E830071080B100900831692
:100030008F308F0580308700FF3085008600831267
:1000400003179E019F019F150313003087001F14A3
:100050001F159F151F129F161F139F149F182E28E0
:100060001E0803192D281F10F00083168113831218
:1000700003179517961703138B158B1700307018FD
:1000800001307019013AF019013A701A013A03105F
:08009000031D0314F00C3E28CF
:101A00008207403412344C342D346D343F3440342A
:101A100012344C342D346D343F34403412344C3451
:101A20002D346D343F34403412344C342D346D3405
:101A30003F34403412344C342D346D343F34403410
:101A400012344C342D346D343F34403412344C3421
:101A50002D346D343F34403412344C342D346D34D5
:101A60003F34403412344C342D346D343F344034E0
:101A700012344C342D346D343F34403412344C34F1
:101A80002D346D343F34403412344C342D346D34A5
:101A90003F34403412344C342D346D343F344034B0
:101AA00012344C342D346D343F34403412344C34C1
:101AB0002D346D343F34403412344C342D346D3475
:101AC0003F34403412344C342D346D343F34403480
:101AD00012344C342D346D343F34403412344C3491
:101AE0002D346D343F34403412344C342D346D3445
:101AF0003F34403412344C342D346D343F34403450
:101B000012344C342D346D343F34403412344C3460
:101B10002D346D343F34403412344C342D346D3414
:101B20003F34403412344C342D346D343F3440341F
:101B300012344C342D346D343F34403412344C3430
:101B40002D346D343F34403412344C342D346D34E4
:101B50003F34403412344C342D346D343F344034EF
:101B600012344C342D346D343F34403412344C3400
:101B70002D346D343F34403412344C342D346D34B4
:101B80003F34403412344C342D346D343F344034BF
:101B900012344C342D346D343F34403412344C34D0
:101BA0002D346D343F34403412344C342D346D3484
:101BB0003F34403412344C342D346D343F3440348F
:101BC00012344C342D346D343F34403412344C34A0
:101BD0002D346D343F34403412344C342D346D3454
:101BE0003F34403412344C342D346D343F3440345F
:101BF00012344C342D346D343F34403412344C3470
:02400E00F43884
:00000001FF
